{
  "contractName": "Strings",
  "abi": [
    {
      "constant": true,
      "inputs": [
        {
          "name": "str",
          "type": "string"
        }
      ],
      "name": "length",
      "outputs": [
        {
          "name": "",
          "type": "uint256"
        }
      ],
      "payable": false,
      "stateMutability": "pure",
      "type": "function"
    },
    {
      "constant": true,
      "inputs": [
        {
          "name": "str1",
          "type": "string"
        },
        {
          "name": "str2",
          "type": "string"
        }
      ],
      "name": "concatenate",
      "outputs": [
        {
          "name": "",
          "type": "string"
        }
      ],
      "payable": false,
      "stateMutability": "pure",
      "type": "function"
    }
  ],
  "bytecode": "0x608060405234801561001057600080fd5b50610506806100206000396000f3fe608060405234801561001057600080fd5b5060043610610053576000357c010000000000000000000000000000000000000000000000000000000090048063266001d314610058578063436a66e714610223575b600080fd5b6101a86004803603604081101561006e57600080fd5b810190808035906020019064010000000081111561008b57600080fd5b82018360208201111561009d57600080fd5b803590602001918460018302840111640100000000831117156100bf57600080fd5b91908080601f016020809104026020016040519081016040528093929190818152602001838380828437600081840152601f19601f8201169050808301925050505050505091929192908035906020019064010000000081111561012257600080fd5b82018360208201111561013457600080fd5b8035906020019184600183028401116401000000008311171561015657600080fd5b91908080601f016020809104026020016040519081016040528093929190818152602001838380828437600081840152601f19601f8201169050808301925050505050505091929192905050506102f2565b6040518080602001828103825283818151815260200191508051906020019080838360005b838110156101e85780820151818401526020810190506101cd565b50505050905090810190601f1680156102155780820380516001836020036101000a031916815260200191505b509250505060405180910390f35b6102dc6004803603602081101561023957600080fd5b810190808035906020019064010000000081111561025657600080fd5b82018360208201111561026857600080fd5b8035906020019184600183028401116401000000008311171561028a57600080fd5b91908080601f016020809104026020016040519081016040528093929190818152602001838380828437600081840152601f19601f8201169050808301925050505050505091929192905050506104c9565b6040518082815260200191505060405180910390f35b6060808390506060839050606081518351016040519080825280601f01601f1916602001820160405280156103365781602001600182028038833980820191505090505b5090506060819050600080905060008090505b85518110156103fe57858181518110151561036057fe5b9060200101517f010000000000000000000000000000000000000000000000000000000000000090047f01000000000000000000000000000000000000000000000000000000000000000283838151811015156103b957fe5b9060200101907effffffffffffffffffffffffffffffffffffffffffffffffffffffffffffff1916908160001a90535081806001019250508080600101915050610349565b5060008090505b84518110156104ba57848181518110151561041c57fe5b9060200101517f010000000000000000000000000000000000000000000000000000000000000090047f010000000000000000000000000000000000000000000000000000000000000002838381518110151561047557fe5b9060200101907effffffffffffffffffffffffffffffffffffffffffffffffffffffffffffff1916908160001a90535081806001019250508080600101915050610405565b50819550505050505092915050565b60006060829050805191505091905056fea165627a7a723058208890743a251fbca58e4c4d5e888a510ad52db265a05229cf447ceb023fe30f340029",
  "source": "pragma solidity ^0.5.2;\n\ncontract Strings {\n  function length(string memory str) pure public returns(uint) {\n    bytes memory str_bytes = bytes(str);\n    return str_bytes.length;\n  }\n\n  function concatenate(string memory str1, string memory str2) pure public returns(string memory) {\n    bytes memory str_bytes1 = bytes(str1);\n    bytes memory str_bytes2 = bytes(str2);\n    string memory str = new string(str_bytes1.length + str_bytes2.length);\n    bytes memory str_bytes = bytes(str);\n\n    uint k = 0;\n    for(uint i = 0; i < str_bytes1.length; i++) {\n      str_bytes[k] = str_bytes1[i];\n      k++;\n    }\n    for(uint i = 0; i < str_bytes2.length; i++) {\n      str_bytes[k] = str_bytes2[i];\n      k++;\n    }\n\n    return string(str_bytes);\n  }\n}\n",
  "sourcePath": "/Users/rasool/Documents/dapp30/Day 11/contracts/Strings.sol",
  "compiler": {
    "name": "solc",
    "version": "0.5.2+commit.1df8f40c.Emscripten.clang"
  },
  "schemaVersion": "3.3.4",
  "updatedAt": "2022-08-11T21:18:27.512Z",
  "networkType": "ethereum",
  "devdoc": {
    "methods": {}
  },
  "userdoc": {
    "methods": {}
  }
}